{
  "contractName": "PurchaseStuff",
  "abi": [
    {
      "inputs": [
        {
          "internalType": "address payable",
          "name": "_admin",
          "type": "address"
        },
        {
          "internalType": "uint256",
          "name": "_price",
          "type": "uint256"
        }
      ],
      "payable": false,
      "stateMutability": "nonpayable",
      "type": "constructor"
    },
    {
      "anonymous": false,
      "inputs": [
        {
          "indexed": true,
          "internalType": "address",
          "name": "buyer",
          "type": "address"
        },
        {
          "indexed": true,
          "internalType": "address",
          "name": "admin",
          "type": "address"
        },
        {
          "indexed": false,
          "internalType": "uint256",
          "name": "price",
          "type": "uint256"
        }
      ],
      "name": "PurchaseEvent",
      "type": "event"
    },
    {
      "constant": true,
      "inputs": [],
      "name": "admin",
      "outputs": [
        {
          "internalType": "address payable",
          "name": "",
          "type": "address"
        }
      ],
      "payable": false,
      "stateMutability": "view",
      "type": "function"
    },
    {
      "constant": true,
      "inputs": [],
      "name": "price",
      "outputs": [
        {
          "internalType": "uint256",
          "name": "",
          "type": "uint256"
        }
      ],
      "payable": false,
      "stateMutability": "view",
      "type": "function"
    },
    {
      "constant": false,
      "inputs": [],
      "name": "purchase",
      "outputs": [],
      "payable": true,
      "stateMutability": "payable",
      "type": "function"
    }
  ],
  "bytecode": "0x608060405234801561001057600080fd5b506040516102bd3803806102bd8339818101604052604081101561003357600080fd5b810190808051906020019092919080519060200190929190505050816000806101000a81548173ffffffffffffffffffffffffffffffffffffffff021916908373ffffffffffffffffffffffffffffffffffffffff160217905550806001819055505050610217806100a66000396000f3fe6080604052600436106100345760003560e01c806364edfbf014610039578063a035b1fe14610043578063f851a4401461006e575b600080fd5b6100416100c5565b005b34801561004f57600080fd5b506100586101b7565b6040518082815260200191505060405180910390f35b34801561007a57600080fd5b506100836101bd565b604051808273ffffffffffffffffffffffffffffffffffffffff1673ffffffffffffffffffffffffffffffffffffffff16815260200191505060405180910390f35b6000809054906101000a900473ffffffffffffffffffffffffffffffffffffffff1673ffffffffffffffffffffffffffffffffffffffff166108fc349081150290604051600060405180830381858888f1935050505015801561012c573d6000803e3d6000fd5b506000809054906101000a900473ffffffffffffffffffffffffffffffffffffffff1673ffffffffffffffffffffffffffffffffffffffff163373ffffffffffffffffffffffffffffffffffffffff167f8aa063289c845e31656d4b39f847822242aaa48db2e913972b72126abd31a9de6001546040518082815260200191505060405180910390a3565b60015481565b6000809054906101000a900473ffffffffffffffffffffffffffffffffffffffff168156fea265627a7a72315820861a678fff2c01c0e210ccaed8e63c8d1edb4b9d1054e8acab7c4ea0eb04b32b64736f6c63430005110032",
  "source": "pragma solidity ^0.5.0;\r\n\r\ncontract PurchaseStuff {\r\n  address payable public admin;\r\n  uint public price;\r\n\r\n  event PurchaseEvent(address indexed buyer, address indexed admin, uint price);\r\n\r\n  constructor (address payable _admin, uint _price) public {\r\n    admin = _admin;\r\n    price = _price;\r\n  }\r\n\r\n  function purchase() public payable{\r\n\r\n    //transfer ether to admin's address\r\n    admin.transfer(msg.value);\r\n\r\n    //emit event to indicate purchase\r\n    emit PurchaseEvent(msg.sender, admin, price);\r\n  }\r\n}",
  "sourcePath": "C:\\Users\\gram\\Documents\\GitHub\\SineMuscat\\frontend\\src\\contracts\\PurchaseStuff.sol",
  "compiler": {
    "name": "solc",
    "version": "0.5.17+commit.d19bba13.Emscripten.clang"
  },
  "schemaVersion": "3.4.13",
  "updatedAt": "2023-05-12T08:57:20.543Z",
  "networkType": "ethereum",
  "devdoc": {
    "methods": {}
  },
  "userdoc": {
    "methods": {}
  }
}