{
  "contractName": "PurchaseStuff",
  "abi": [
    {
      "inputs": [
        {
          "internalType": "address payable",
          "name": "_seller",
          "type": "address"
        },
        {
          "internalType": "uint256",
          "name": "_price",
          "type": "uint256"
        }
      ],
      "payable": false,
      "stateMutability": "nonpayable",
      "type": "constructor"
    },
    {
      "anonymous": false,
      "inputs": [
        {
          "indexed": true,
          "internalType": "address",
          "name": "buyer",
          "type": "address"
        },
        {
          "indexed": true,
          "internalType": "address",
          "name": "seller",
          "type": "address"
        },
        {
          "indexed": false,
          "internalType": "uint256",
          "name": "price",
          "type": "uint256"
        }
      ],
      "name": "PurchaseEvent",
      "type": "event"
    },
    {
      "constant": true,
      "inputs": [],
      "name": "price",
      "outputs": [
        {
          "internalType": "uint256",
          "name": "",
          "type": "uint256"
        }
      ],
      "payable": false,
      "stateMutability": "view",
      "type": "function"
    },
    {
      "constant": true,
      "inputs": [],
      "name": "seller",
      "outputs": [
        {
          "internalType": "address payable",
          "name": "",
          "type": "address"
        }
      ],
      "payable": false,
      "stateMutability": "view",
      "type": "function"
    },
    {
      "constant": false,
      "inputs": [],
      "name": "purchase",
      "outputs": [],
      "payable": true,
      "stateMutability": "payable",
      "type": "function"
    }
  ],
  "bytecode": "0x608060405234801561001057600080fd5b506040516102bd3803806102bd8339818101604052604081101561003357600080fd5b810190808051906020019092919080519060200190929190505050816000806101000a81548173ffffffffffffffffffffffffffffffffffffffff021916908373ffffffffffffffffffffffffffffffffffffffff160217905550806001819055505050610217806100a66000396000f3fe6080604052600436106100345760003560e01c806308551a531461003957806364edfbf014610090578063a035b1fe1461009a575b600080fd5b34801561004557600080fd5b5061004e6100c5565b604051808273ffffffffffffffffffffffffffffffffffffffff1673ffffffffffffffffffffffffffffffffffffffff16815260200191505060405180910390f35b6100986100ea565b005b3480156100a657600080fd5b506100af6101dc565b6040518082815260200191505060405180910390f35b6000809054906101000a900473ffffffffffffffffffffffffffffffffffffffff1681565b6000809054906101000a900473ffffffffffffffffffffffffffffffffffffffff1673ffffffffffffffffffffffffffffffffffffffff166108fc349081150290604051600060405180830381858888f19350505050158015610151573d6000803e3d6000fd5b506000809054906101000a900473ffffffffffffffffffffffffffffffffffffffff1673ffffffffffffffffffffffffffffffffffffffff163373ffffffffffffffffffffffffffffffffffffffff167f8aa063289c845e31656d4b39f847822242aaa48db2e913972b72126abd31a9de6001546040518082815260200191505060405180910390a3565b6001548156fea265627a7a723158208c4cb6765854e94c68dc8550f7a5bb5e8f0b351797b71ecc97423449881aeb7964736f6c63430005110032",
  "source": "pragma solidity ^0.5.0;\r\n\r\ncontract PurchaseStuff {\r\n  address payable public seller;\r\n  uint public price;\r\n\r\n  event PurchaseEvent(address indexed buyer, address indexed seller, uint price);\r\n\r\n  constructor (address payable _seller, uint _price) public {\r\n    seller = _seller;\r\n    price = _price;\r\n  }\r\n\r\n  function purchase() public payable{\r\n\r\n    //transfer ether to seller's address\r\n    seller.transfer(msg.value);\r\n\r\n    //emit event to indicate purchase\r\n    emit PurchaseEvent(msg.sender, seller, price);\r\n  }\r\n}",
  "sourcePath": "C:\\Users\\gram\\Documents\\GitHub\\SineMuscat\\frontend\\src\\contracts\\token.sol",
  "compiler": {
    "name": "solc",
    "version": "0.5.17+commit.d19bba13.Emscripten.clang"
  },
  "schemaVersion": "3.4.13",
  "updatedAt": "2023-04-07T07:53:18.915Z",
  "devdoc": {
    "methods": {}
  },
  "userdoc": {
    "methods": {}
  }
}